:10000000753000753100753209753309754001117D
:1000100056D540FB1125B40AF61156D540FB113DCB
:10002000B4FFF680E70530E530B40A2975300005E5
:1000300031E531B40A1F753000753100221532E503
:1000400032B4FF117532091533E533B4FF07753249
:10005000097533092222C2A0D2A1D2A2D2A3900054
:10006000ACE53093F580119FD2A0C2A1D2A2D2A359
:100070009000ACE53193F580119FD2A0D2A1C2A22D
:10008000D2A39000ACE53293F580119FD2A0D2A10B
:10009000D2A2C2A39000ACE53393F580119F2275E4
:1000A0003505753410D534FDD535F722FC60DAF20C
:0600B00066B6BEE0FEF69C
:00000001FF
