:1000000075800075300975310975320975330975C8
:1000100040051157D540FB111B80F41530E530B475
:10002000FF347530091531E531B4FF2A7531097592
:1000300030091532E532B4FF1D7531097530097587
:1000400032091533E533B4FF0D7531097530097583
:1000500032097533092222C2A0D2A1D2A2D2A39022
:1000600000ADE53093F58011A0D2A0C2A1D2A2D2FA
:10007000A39000ADE53193F58011A0D2A0D2A1C22A
:10008000A2D2A39000ADE53293F58011A0D2A0D208
:10009000A1D2A2C2A39000ADE53393F58011A022B6
:1000A0007535057534FFD534FDD535F722FC60DA9A
:0D00B000F266B6BEE0FEF6EE3E9C7A9E8F34
:00000001FF
